:0B021B00040900000000C10001080001
:1001BE00E4FEEFFDEEFB3395E0FAC3EB9D7480F8A1
:0401CE006A98500AD1
:0701D200750F01D50FFD00C0
:0301D9000E80E4B1
:0101DC002200
:1001F400C28C758C02758A18D2927F0A1201BEC213
:0602040092D2B2D28C225E
:0300030002000EEA
:10000E00C0E0C0F0C083C082C0D075D000C000C0B8
:10001E0001C002C003C004C005C006C0077FD07E69
:10002E00FB7D017C00AB0CAA0BA90AA809C3120226
:10003E000A6059D293E508AF8C701DEFFEAD8A7C35
:10004E0000E42DFFEC3ECF24DFCF34FFFEE48F0C17
:10005E008E0BF50AF5098034EFFEAD8A7C00E42D97
:10006E00FFEC3ECF24DFCF34FFFEEF24E8FFEE346B
:10007E00FDFEE433FDEC33FCE50C2FF50CE50B3EF9
:10008E00F50BE50A3DF50AE5093CF509C28C7FB092
:10009E007EAD7D017C00AB0CAA0BA90AA809C31288
:1000AE00020A500330000CC200D2931201F47508FC
:1000BE00008008750800C2931201F4D007D006D054
:1000CE0005D004D003D002D001D000D0D0D082D041
:0600DE0083D0F0D0E032F7
:03000B000201707F
:10017000C0E0C0D075D000C000C002C003C005C040
:1001800006C007E5087011750CE8750BFDF50AF55A
:100190000905081201F48015E508B40110750CD0AA
:1001A000750BFB750A01750900C28CD200D007D00F
:0E01B00006D005D003D002D000D0D0D0E0326F
:1001DD00D288D2A8D2A97589111201F4D2AFD2B2A8
:0701ED003000FDC2B280F9F1
:030000000200E417
:0C00E400787FE4F6D8FD75812002012B26
:10020A00EB9FF5F0EA9E42F0E99D42F0E89C45F04A
:01021A0022C1
:1000F0000201DDE493A3F8E493A34003F68001F248
:1001000008DFF48029E493A3F85407240CC8C33310
:10011000C4540F4420C8834004F456800146F6DFDF
:10012000E4800B010204081020408090021BE47E52
:10013000019360BCA3FF543F30E509541FFEE493D4
:10014000A360010ECF54C025E060A840B8E493A39B
:10015000FAE493A3F8E493A3C8C582C8CAC583CAC6
:10016000F0A3C8C582C8CAC583CADFE9DEE780BE7E
:0102260000D7
:00000001FF
